{
  "_format": "hh3-artifact-1",
  "contractName": "MockKeeperHub",
  "sourceName": "contracts/test/MockKeeperHub.sol",
  "abi": [
    {
      "anonymous": false,
      "inputs": [
        {
          "indexed": true,
          "internalType": "bytes32",
          "name": "taskId",
          "type": "bytes32"
        }
      ],
      "name": "TaskCancelled",
      "type": "event"
    },
    {
      "anonymous": false,
      "inputs": [
        {
          "indexed": true,
          "internalType": "bytes32",
          "name": "taskId",
          "type": "bytes32"
        }
      ],
      "name": "TaskExecuted",
      "type": "event"
    },
    {
      "anonymous": false,
      "inputs": [
        {
          "indexed": true,
          "internalType": "bytes32",
          "name": "taskId",
          "type": "bytes32"
        },
        {
          "indexed": false,
          "internalType": "address",
          "name": "target",
          "type": "address"
        }
      ],
      "name": "TaskRegistered",
      "type": "event"
    },
    {
      "inputs": [
        {
          "internalType": "bytes32",
          "name": "taskId",
          "type": "bytes32"
        }
      ],
      "name": "cancelTask",
      "outputs": [],
      "stateMutability": "nonpayable",
      "type": "function"
    },
    {
      "inputs": [
        {
          "internalType": "address",
          "name": "target",
          "type": "address"
        },
        {
          "internalType": "bytes",
          "name": "data",
          "type": "bytes"
        }
      ],
      "name": "directCall",
      "outputs": [],
      "stateMutability": "nonpayable",
      "type": "function"
    },
    {
      "inputs": [
        {
          "internalType": "bytes32",
          "name": "taskId",
          "type": "bytes32"
        }
      ],
      "name": "executeTask",
      "outputs": [],
      "stateMutability": "nonpayable",
      "type": "function"
    },
    {
      "inputs": [
        {
          "internalType": "bytes32",
          "name": "taskId",
          "type": "bytes32"
        }
      ],
      "name": "getTask",
      "outputs": [
        {
          "components": [
            {
              "internalType": "address",
              "name": "target",
              "type": "address"
            },
            {
              "internalType": "bytes",
              "name": "callData",
              "type": "bytes"
            },
            {
              "internalType": "uint256",
              "name": "deadline",
              "type": "uint256"
            },
            {
              "internalType": "uint256",
              "name": "gasLimit",
              "type": "uint256"
            },
            {
              "internalType": "enum MockKeeperHub.TaskStatus",
              "name": "status",
              "type": "uint8"
            }
          ],
          "internalType": "struct MockKeeperHub.Task",
          "name": "",
          "type": "tuple"
        }
      ],
      "stateMutability": "view",
      "type": "function"
    },
    {
      "inputs": [
        {
          "internalType": "address",
          "name": "target",
          "type": "address"
        },
        {
          "internalType": "bytes",
          "name": "callData",
          "type": "bytes"
        },
        {
          "internalType": "uint256",
          "name": "deadline",
          "type": "uint256"
        },
        {
          "internalType": "uint256",
          "name": "gasLimit",
          "type": "uint256"
        }
      ],
      "name": "registerTask",
      "outputs": [
        {
          "internalType": "bytes32",
          "name": "taskId",
          "type": "bytes32"
        }
      ],
      "stateMutability": "nonpayable",
      "type": "function"
    },
    {
      "inputs": [
        {
          "internalType": "bytes32",
          "name": "",
          "type": "bytes32"
        }
      ],
      "name": "tasks",
      "outputs": [
        {
          "internalType": "address",
          "name": "target",
          "type": "address"
        },
        {
          "internalType": "bytes",
          "name": "callData",
          "type": "bytes"
        },
        {
          "internalType": "uint256",
          "name": "deadline",
          "type": "uint256"
        },
        {
          "internalType": "uint256",
          "name": "gasLimit",
          "type": "uint256"
        },
        {
          "internalType": "enum MockKeeperHub.TaskStatus",
          "name": "status",
          "type": "uint8"
        }
      ],
      "stateMutability": "view",
      "type": "function"
    }
  ],
  "bytecode": "0x6080604052348015600e575f5ffd5b50610ba68061001c5f395ff3fe608060405234801561000f575f5ffd5b5060043610610060575f3560e01c80630181f24f1461006457806315a290351461008a5780635bb0431d146100aa578063dcf1165c146100bf578063e579f500146100d2578063ee8ca3b5146100f6575b5f5ffd5b610077610072366004610777565b610109565b6040519081526020015b60405180910390f35b61009d6100983660046107d7565b61027e565b6040516100819190610850565b6100bd6100b83660046108ad565b61038b565b005b6100bd6100cd3660046107d7565b610434565b6100e56100e03660046107d7565b6105ca565b6040516100819594939291906108fc565b6100bd6101043660046107d7565b61068e565b5f858585855f5f81548092919061011f90610944565b91905055604051602001610137959493929190610968565b6040516020818303038152906040528051906020012090506040518060a00160405280876001600160a01b0316815260200186868080601f0160208091040260200160405190810160405280939291908181526020018383808284375f92018290525093855250505060208201869052604082018590526060909101525f828152600160208181526040909220835181546001600160a01b0319166001600160a01b0390911617815591830151908201906101f29082610a35565b5060408201518160020155606082015181600301556080820151816004015f6101000a81548160ff021916908360038111156102305761023061081c565b0217905550506040516001600160a01b03881681528291507fdfeab68a536ed6d12e7d8b683486ffabaef6689e55fb551274a82eb7e938f3be9060200160405180910390a295945050505050565b6102866106d3565b5f82815260016020818152604092839020835160a0810190945280546001600160a01b031684529182018054918401916102bf906109b1565b80601f01602080910402602001604051908101604052809291908181526020018280546102eb906109b1565b80156103365780601f1061030d57610100808354040283529160200191610336565b820191905f5260205f20905b81548152906001019060200180831161031957829003601f168201915b5050509183525050600282015460208201526003808301546040830152600483015460609092019160ff16908111156103715761037161081c565b60038111156103825761038261081c565b90525092915050565b5f836001600160a01b031683836040516103a6929190610af0565b5f604051808303815f865af19150503d805f81146103df576040519150601f19603f3d011682016040523d82523d5f602084013e6103e4565b606091505b505090508061042e5760405162461bcd60e51b8152602060048201526011602482015270191a5c9958dd10d85b1b0819985a5b1959607a1b60448201526064015b60405180910390fd5b50505050565b5f81815260016020526040812090600482015460ff16600381111561045b5761045b61081c565b146104965760405162461bcd60e51b815260206004820152600b60248201526a4e6f742070656e64696e6760a81b6044820152606401610425565b80600201544211156104dc5760405162461bcd60e51b815260206004820152600f60248201526e111958591b1a5b99481c185cdcd959608a1b6044820152606401610425565b60048101805460ff19166001908117909155815460038301546040515f936001600160a01b03909316926105139190860190610aff565b5f604051808303815f8787f1925050503d805f811461054d576040519150601f19603f3d011682016040523d82523d5f602084013e610552565b606091505b505090508061059b5760405162461bcd60e51b815260206004820152601560248201527415185cdac8195e1958dd5d1a5bdb8819985a5b1959605a1b6044820152606401610425565b60405183907f3a04c0621dfd116e61ea63184b2b9c8cf514b0075675645493095b7be2e492d5905f90a2505050565b600160208190525f9182526040909120805491810180546001600160a01b03909316926105f6906109b1565b80601f0160208091040260200160405190810160405280929190818152602001828054610622906109b1565b801561066d5780601f106106445761010080835404028352916020019161066d565b820191905f5260205f20905b81548152906001019060200180831161065057829003601f168201915b50505050600283015460038401546004909401549293909290915060ff1685565b5f81815260016020526040808220600401805460ff191660021790555182917fe1e1d79b8f28d3379fc32f617eaf54dd6bd4071074c77e91134770e04a81d62691a250565b6040518060a001604052805f6001600160a01b03168152602001606081526020015f81526020015f81526020015f60038111156107125761071261081c565b905290565b80356001600160a01b038116811461072d575f5ffd5b919050565b5f5f83601f840112610742575f5ffd5b50813567ffffffffffffffff811115610759575f5ffd5b602083019150836020828501011115610770575f5ffd5b9250929050565b5f5f5f5f5f6080868803121561078b575f5ffd5b61079486610717565b9450602086013567ffffffffffffffff8111156107af575f5ffd5b6107bb88828901610732565b9699909850959660408101359660609091013595509350505050565b5f602082840312156107e7575f5ffd5b5035919050565b5f81518084528060208401602086015e5f602082860101526020601f19601f83011685010191505092915050565b634e487b7160e01b5f52602160045260245ffd5b6004811061084c57634e487b7160e01b5f52602160045260245ffd5b9052565b602080825282516001600160a01b03168282015282015160a060408301525f9061087d60c08401826107ee565b9050604084015160608401526060840151608084015260808401516108a560a0850182610830565b509392505050565b5f5f5f604084860312156108bf575f5ffd5b6108c884610717565b9250602084013567ffffffffffffffff8111156108e3575f5ffd5b6108ef86828701610732565b9497909650939450505050565b6001600160a01b038616815260a0602082018190525f9061091f908301876107ee565b905084604083015283606083015261093a6080830184610830565b9695505050505050565b5f6001820161096157634e487b7160e01b5f52601160045260245ffd5b5060010190565b6bffffffffffffffffffffffff198660601b168152838560148301376014930192830191909152603482015260540192915050565b634e487b7160e01b5f52604160045260245ffd5b600181811c908216806109c557607f821691505b6020821081036109e357634e487b7160e01b5f52602260045260245ffd5b50919050565b601f821115610a3057805f5260205f20601f840160051c81016020851015610a0e5750805b601f840160051c820191505b81811015610a2d575f8155600101610a1a565b50505b505050565b815167ffffffffffffffff811115610a4f57610a4f61099d565b610a6381610a5d84546109b1565b846109e9565b6020601f821160018114610a95575f8315610a7e5750848201515b5f19600385901b1c1916600184901b178455610a2d565b5f84815260208120601f198516915b82811015610ac45787850151825560209485019460019092019101610aa4565b5084821015610ae157868401515f19600387901b60f8161c191681555b50505050600190811b01905550565b818382375f9101908152919050565b5f5f8354610b0c816109b1565b600182168015610b235760018114610b3857610b65565b60ff1983168652811515820286019350610b65565b865f5260205f205f5b83811015610b5d57815488820152600190910190602001610b41565b505081860193505b50919594505050505056fea2646970667358221220229849bf24ab0de6833ba1620f19d90c83be60034a54f1f6aafdc3ebc16d0f7364736f6c634300081c0033",
  "linkReferences": {},
  "deployedLinkReferences": {},
  "immutableReferences": {},
  "inputSourceName": "project/contracts/test/MockKeeperHub.sol",
  "buildInfoId": "solc-0_8_28-83dd6be9a934f15977b60ea7ad343a2d578251d5"
}