{
  "_format": "hh3-artifact-1",
  "contractName": "MockPermit2",
  "sourceName": "contracts/test/MockPermit2.sol",
  "abi": [
    {
      "inputs": [
        {
          "internalType": "address",
          "name": "user",
          "type": "address"
        },
        {
          "internalType": "address",
          "name": "token",
          "type": "address"
        },
        {
          "internalType": "address",
          "name": "spender",
          "type": "address"
        }
      ],
      "name": "allowance",
      "outputs": [
        {
          "internalType": "uint160",
          "name": "amount",
          "type": "uint160"
        },
        {
          "internalType": "uint48",
          "name": "expiration",
          "type": "uint48"
        },
        {
          "internalType": "uint48",
          "name": "nonce",
          "type": "uint48"
        }
      ],
      "stateMutability": "view",
      "type": "function"
    },
    {
      "inputs": [
        {
          "internalType": "address",
          "name": "",
          "type": "address"
        },
        {
          "internalType": "address",
          "name": "",
          "type": "address"
        },
        {
          "internalType": "address",
          "name": "",
          "type": "address"
        }
      ],
      "name": "allowances",
      "outputs": [
        {
          "internalType": "uint160",
          "name": "amount",
          "type": "uint160"
        },
        {
          "internalType": "uint48",
          "name": "expiration",
          "type": "uint48"
        }
      ],
      "stateMutability": "view",
      "type": "function"
    },
    {
      "inputs": [
        {
          "internalType": "address",
          "name": "token",
          "type": "address"
        },
        {
          "internalType": "address",
          "name": "spender",
          "type": "address"
        },
        {
          "internalType": "uint160",
          "name": "amount",
          "type": "uint160"
        },
        {
          "internalType": "uint48",
          "name": "expiration",
          "type": "uint48"
        }
      ],
      "name": "approve",
      "outputs": [],
      "stateMutability": "nonpayable",
      "type": "function"
    }
  ],
  "bytecode": "0x6080604052348015600e575f5ffd5b506102c38061001c5f395ff3fe608060405234801561000f575f5ffd5b506004361061003f575f3560e01c806387517c4514610043578063927da105146100bf578063b713c9d41461015c575b5f5ffd5b6100bd6100513660046101e2565b6040805180820182526001600160a01b03938416815265ffffffffffff9283166020808301918252335f90815280825284812098871681529781528388209686168852959095529420935184549351909116600160a01b026001600160d01b0319909316911617179055565b005b6101296100cd366004610245565b6001600160a01b039283165f9081526020818152604080832094861683529381528382209285168252918252828120835180850190945254938416808452600160a01b90940465ffffffffffff16929091018290529192909190565b604080516001600160a01b03909416845265ffffffffffff92831660208501529116908201526060015b60405180910390f35b6101a561016a366004610245565b5f60208181529381526040808220855292815282812090935282529020546001600160a01b03811690600160a01b900465ffffffffffff1682565b604080516001600160a01b03909316835265ffffffffffff909116602083015201610153565b6001600160a01b03811681146101df575f5ffd5b50565b5f5f5f5f608085870312156101f5575f5ffd5b8435610200816101cb565b93506020850135610210816101cb565b92506040850135610220816101cb565b9150606085013565ffffffffffff8116811461023a575f5ffd5b939692955090935050565b5f5f5f60608486031215610257575f5ffd5b8335610262816101cb565b92506020840135610272816101cb565b91506040840135610282816101cb565b80915050925092509256fea264697066735822122007c81e7a0abba6bcb5442a5597980a01e942084d07958d72b6c7344a832dd90a64736f6c634300081c0033",
  "linkReferences": {},
  "deployedLinkReferences": {},
  "immutableReferences": {},
  "inputSourceName": "project/contracts/test/MockPermit2.sol",
  "buildInfoId": "solc-0_8_28-5596014729164639a5ab56825d330f876fee8298"
}