{
  "_format": "hh3-artifact-1",
  "contractName": "MockUniversalRouter",
  "sourceName": "contracts/test/MockUniversalRouter.sol",
  "abi": [
    {
      "inputs": [
        {
          "internalType": "address",
          "name": "_usdc",
          "type": "address"
        },
        {
          "internalType": "uint256",
          "name": "_rate",
          "type": "uint256"
        }
      ],
      "stateMutability": "nonpayable",
      "type": "constructor"
    },
    {
      "inputs": [
        {
          "internalType": "address",
          "name": "token",
          "type": "address"
        }
      ],
      "name": "SafeERC20FailedOperation",
      "type": "error"
    },
    {
      "inputs": [
        {
          "internalType": "bytes",
          "name": "",
          "type": "bytes"
        },
        {
          "internalType": "bytes[]",
          "name": "inputs",
          "type": "bytes[]"
        },
        {
          "internalType": "uint256",
          "name": "",
          "type": "uint256"
        }
      ],
      "name": "execute",
      "outputs": [],
      "stateMutability": "payable",
      "type": "function"
    },
    {
      "inputs": [],
      "name": "rate",
      "outputs": [
        {
          "internalType": "uint256",
          "name": "",
          "type": "uint256"
        }
      ],
      "stateMutability": "view",
      "type": "function"
    },
    {
      "inputs": [
        {
          "internalType": "uint256",
          "name": "_rate",
          "type": "uint256"
        }
      ],
      "name": "setRate",
      "outputs": [],
      "stateMutability": "nonpayable",
      "type": "function"
    },
    {
      "inputs": [],
      "name": "usdc",
      "outputs": [
        {
          "internalType": "address",
          "name": "",
          "type": "address"
        }
      ],
      "stateMutability": "view",
      "type": "function"
    },
    {
      "stateMutability": "payable",
      "type": "receive"
    }
  ],
  "bytecode": "0x6080604052348015600e575f5ffd5b506040516105ca3803806105ca833981016040819052602b916052565b5f80546001600160a01b0319166001600160a01b0393909316929092179091556001556087565b5f5f604083850312156062575f5ffd5b82516001600160a01b03811681146077575f5ffd5b6020939093015192949293505050565b610536806100945f395ff3fe608060405260043610610041575f3560e01c80632c4e722e1461004c57806334fcf437146100745780633593564c146100955780633e413bee146100a8575f5ffd5b3661004857005b5f5ffd5b348015610057575f5ffd5b5061006160015481565b6040519081526020015b60405180910390f35b34801561007f575f5ffd5b5061009361008e366004610248565b600155565b005b6100936100a33660046102a7565b6100de565b3480156100b3575f5ffd5b505f546100c6906001600160a01b031681565b6040516001600160a01b03909116815260200161006b565b5f80341561012857848460018181106100f9576100f9610346565b905060200281019061010b919061035a565b81019061011891906103c5565b5034955092935061016392505050565b84845f81811061013a5761013a610346565b905060200281019061014c919061035a565b81019061015991906103c5565b5091945091925050505b5f670de0b6b3a76400006001548461017b91906104b8565b61018591906104e1565b5f5490915061019e906001600160a01b031683836101a8565b5050505050505050565b6101b583838360016101e6565b6101e157604051635274afe760e01b81526001600160a01b038416600482015260240160405180910390fd5b505050565b60405163a9059cbb60e01b5f8181526001600160a01b038616600452602485905291602083604481808b5af1925060015f5114831661023c578383151615610230573d5f823e3d81fd5b5f873b113d1516831692505b60405250949350505050565b5f60208284031215610258575f5ffd5b5035919050565b5f5f83601f84011261026f575f5ffd5b50813567ffffffffffffffff811115610286575f5ffd5b6020830191508360208260051b85010111156102a0575f5ffd5b9250929050565b5f5f5f5f5f606086880312156102bb575f5ffd5b853567ffffffffffffffff8111156102d1575f5ffd5b8601601f810188136102e1575f5ffd5b803567ffffffffffffffff8111156102f7575f5ffd5b886020828401011115610308575f5ffd5b60209182019650945086013567ffffffffffffffff811115610328575f5ffd5b6103348882890161025f565b96999598509660400135949350505050565b634e487b7160e01b5f52603260045260245ffd5b5f5f8335601e1984360301811261036f575f5ffd5b83018035915067ffffffffffffffff821115610389575f5ffd5b6020019150368190038213156102a0575f5ffd5b634e487b7160e01b5f52604160045260245ffd5b803580151581146103c0575f5ffd5b919050565b5f5f5f5f5f60a086880312156103d9575f5ffd5b85356001600160a01b03811681146103ef575f5ffd5b94506020860135935060408601359250606086013567ffffffffffffffff811115610418575f5ffd5b8601601f81018813610428575f5ffd5b803567ffffffffffffffff8111156104425761044261039d565b604051601f8201601f19908116603f0116810167ffffffffffffffff811182821017156104715761047161039d565b6040528181528282016020018a1015610488575f5ffd5b816020840160208301375f602083830101528094505050506104ac608087016103b1565b90509295509295909350565b80820281158282048414176104db57634e487b7160e01b5f52601160045260245ffd5b92915050565b5f826104fb57634e487b7160e01b5f52601260045260245ffd5b50049056fea264697066735822122062330e60174e90a95cc8eb5fcde2e6b7058f37f94f6379c1e0b6d14f0469a71c64736f6c634300081c0033",
  "linkReferences": {},
  "deployedLinkReferences": {},
  "immutableReferences": {},
  "inputSourceName": "project/contracts/test/MockUniversalRouter.sol",
  "buildInfoId": "solc-0_8_28-f6d93a3a7407f7d3e308b0214a7b01afb5dc4f14"
}