{
  "_format": "hh3-artifact-1",
  "contractName": "TrustLanceEscrow",
  "sourceName": "contracts/TrustLanceEscrow.sol",
  "abi": [
    {
      "inputs": [
        {
          "internalType": "address",
          "name": "_usdc",
          "type": "address"
        },
        {
          "internalType": "address",
          "name": "_uniswapRouter",
          "type": "address"
        },
        {
          "internalType": "address",
          "name": "_permit2",
          "type": "address"
        },
        {
          "internalType": "address",
          "name": "_weth",
          "type": "address"
        },
        {
          "internalType": "address",
          "name": "_keeperHub",
          "type": "address"
        },
        {
          "internalType": "address",
          "name": "_keeper",
          "type": "address"
        }
      ],
      "stateMutability": "nonpayable",
      "type": "constructor"
    },
    {
      "inputs": [],
      "name": "AmountZero",
      "type": "error"
    },
    {
      "inputs": [],
      "name": "ClientCannotBeFreelancer",
      "type": "error"
    },
    {
      "inputs": [],
      "name": "EnforcedPause",
      "type": "error"
    },
    {
      "inputs": [],
      "name": "ExpectedPause",
      "type": "error"
    },
    {
      "inputs": [],
      "name": "FeeTooHigh",
      "type": "error"
    },
    {
      "inputs": [],
      "name": "FreelancerMismatch",
      "type": "error"
    },
    {
      "inputs": [],
      "name": "InvalidToken",
      "type": "error"
    },
    {
      "inputs": [],
      "name": "JobNotFound",
      "type": "error"
    },
    {
      "inputs": [],
      "name": "NoFeesToWithdraw",
      "type": "error"
    },
    {
      "inputs": [],
      "name": "NotClient",
      "type": "error"
    },
    {
      "inputs": [],
      "name": "NotFreelancer",
      "type": "error"
    },
    {
      "inputs": [],
      "name": "NotKeeper",
      "type": "error"
    },
    {
      "inputs": [
        {
          "internalType": "address",
          "name": "owner",
          "type": "address"
        }
      ],
      "name": "OwnableInvalidOwner",
      "type": "error"
    },
    {
      "inputs": [
        {
          "internalType": "address",
          "name": "account",
          "type": "address"
        }
      ],
      "name": "OwnableUnauthorizedAccount",
      "type": "error"
    },
    {
      "inputs": [],
      "name": "ReentrancyGuardReentrantCall",
      "type": "error"
    },
    {
      "inputs": [],
      "name": "RefundFailed",
      "type": "error"
    },
    {
      "inputs": [
        {
          "internalType": "address",
          "name": "token",
          "type": "address"
        }
      ],
      "name": "SafeERC20FailedOperation",
      "type": "error"
    },
    {
      "inputs": [
        {
          "internalType": "uint256",
          "name": "received",
          "type": "uint256"
        },
        {
          "internalType": "uint256",
          "name": "minExpected",
          "type": "uint256"
        }
      ],
      "name": "SlippageTooHigh",
      "type": "error"
    },
    {
      "inputs": [],
      "name": "SwapFailed",
      "type": "error"
    },
    {
      "inputs": [],
      "name": "TimeoutNotReached",
      "type": "error"
    },
    {
      "inputs": [
        {
          "internalType": "enum TrustLanceEscrow.Status",
          "name": "expected",
          "type": "uint8"
        },
        {
          "internalType": "enum TrustLanceEscrow.Status",
          "name": "actual",
          "type": "uint8"
        }
      ],
      "name": "WrongStatus",
      "type": "error"
    },
    {
      "anonymous": false,
      "inputs": [
        {
          "indexed": false,
          "internalType": "uint256",
          "name": "oldBps",
          "type": "uint256"
        },
        {
          "indexed": false,
          "internalType": "uint256",
          "name": "newBps",
          "type": "uint256"
        }
      ],
      "name": "FeeUpdated",
      "type": "event"
    },
    {
      "anonymous": false,
      "inputs": [
        {
          "indexed": true,
          "internalType": "address",
          "name": "to",
          "type": "address"
        },
        {
          "indexed": false,
          "internalType": "uint256",
          "name": "amount",
          "type": "uint256"
        }
      ],
      "name": "FeesWithdrawn",
      "type": "event"
    },
    {
      "anonymous": false,
      "inputs": [
        {
          "indexed": true,
          "internalType": "uint256",
          "name": "jobId",
          "type": "uint256"
        },
        {
          "indexed": true,
          "internalType": "address",
          "name": "freelancer",
          "type": "address"
        },
        {
          "indexed": false,
          "internalType": "uint256",
          "name": "acceptedAt",
          "type": "uint256"
        }
      ],
      "name": "JobAccepted",
      "type": "event"
    },
    {
      "anonymous": false,
      "inputs": [
        {
          "indexed": true,
          "internalType": "uint256",
          "name": "jobId",
          "type": "uint256"
        },
        {
          "indexed": true,
          "internalType": "address",
          "name": "client",
          "type": "address"
        },
        {
          "indexed": false,
          "internalType": "uint256",
          "name": "refund",
          "type": "uint256"
        }
      ],
      "name": "JobCancelled",
      "type": "event"
    },
    {
      "anonymous": false,
      "inputs": [
        {
          "indexed": true,
          "internalType": "uint256",
          "name": "jobId",
          "type": "uint256"
        },
        {
          "indexed": true,
          "internalType": "address",
          "name": "client",
          "type": "address"
        },
        {
          "indexed": false,
          "internalType": "uint256",
          "name": "amountUSDC",
          "type": "uint256"
        },
        {
          "indexed": false,
          "internalType": "address",
          "name": "depositToken",
          "type": "address"
        },
        {
          "indexed": false,
          "internalType": "string",
          "name": "ipfsJobSpec",
          "type": "string"
        }
      ],
      "name": "JobCreated",
      "type": "event"
    },
    {
      "anonymous": false,
      "inputs": [
        {
          "indexed": true,
          "internalType": "address",
          "name": "previousOwner",
          "type": "address"
        },
        {
          "indexed": true,
          "internalType": "address",
          "name": "newOwner",
          "type": "address"
        }
      ],
      "name": "OwnershipTransferred",
      "type": "event"
    },
    {
      "anonymous": false,
      "inputs": [
        {
          "indexed": false,
          "internalType": "address",
          "name": "account",
          "type": "address"
        }
      ],
      "name": "Paused",
      "type": "event"
    },
    {
      "anonymous": false,
      "inputs": [
        {
          "indexed": true,
          "internalType": "uint256",
          "name": "jobId",
          "type": "uint256"
        },
        {
          "indexed": true,
          "internalType": "address",
          "name": "freelancer",
          "type": "address"
        },
        {
          "indexed": false,
          "internalType": "uint256",
          "name": "amount",
          "type": "uint256"
        }
      ],
      "name": "PaymentReclaimed",
      "type": "event"
    },
    {
      "anonymous": false,
      "inputs": [
        {
          "indexed": true,
          "internalType": "uint256",
          "name": "jobId",
          "type": "uint256"
        },
        {
          "indexed": true,
          "internalType": "address",
          "name": "freelancer",
          "type": "address"
        },
        {
          "indexed": false,
          "internalType": "uint256",
          "name": "net",
          "type": "uint256"
        },
        {
          "indexed": false,
          "internalType": "uint256",
          "name": "fee",
          "type": "uint256"
        }
      ],
      "name": "PaymentReleased",
      "type": "event"
    },
    {
      "anonymous": false,
      "inputs": [
        {
          "indexed": true,
          "internalType": "uint256",
          "name": "jobId",
          "type": "uint256"
        },
        {
          "indexed": false,
          "internalType": "address",
          "name": "tokenIn",
          "type": "address"
        },
        {
          "indexed": false,
          "internalType": "uint256",
          "name": "amountIn",
          "type": "uint256"
        },
        {
          "indexed": false,
          "internalType": "uint256",
          "name": "usdcReceived",
          "type": "uint256"
        }
      ],
      "name": "SwapExecuted",
      "type": "event"
    },
    {
      "anonymous": false,
      "inputs": [
        {
          "indexed": false,
          "internalType": "address",
          "name": "account",
          "type": "address"
        }
      ],
      "name": "Unpaused",
      "type": "event"
    },
    {
      "anonymous": false,
      "inputs": [
        {
          "indexed": true,
          "internalType": "uint256",
          "name": "jobId",
          "type": "uint256"
        },
        {
          "indexed": true,
          "internalType": "address",
          "name": "client",
          "type": "address"
        },
        {
          "indexed": false,
          "internalType": "bytes32",
          "name": "keeperTaskId",
          "type": "bytes32"
        }
      ],
      "name": "WorkApproved",
      "type": "event"
    },
    {
      "anonymous": false,
      "inputs": [
        {
          "indexed": true,
          "internalType": "uint256",
          "name": "jobId",
          "type": "uint256"
        },
        {
          "indexed": true,
          "internalType": "address",
          "name": "freelancer",
          "type": "address"
        },
        {
          "indexed": false,
          "internalType": "string",
          "name": "ipfsDeliverable",
          "type": "string"
        }
      ],
      "name": "WorkSubmitted",
      "type": "event"
    },
    {
      "inputs": [],
      "name": "MAX_FEE_BPS",
      "outputs": [
        {
          "internalType": "uint256",
          "name": "",
          "type": "uint256"
        }
      ],
      "stateMutability": "view",
      "type": "function"
    },
    {
      "inputs": [],
      "name": "POOL_FEE_HIGH",
      "outputs": [
        {
          "internalType": "uint24",
          "name": "",
          "type": "uint24"
        }
      ],
      "stateMutability": "view",
      "type": "function"
    },
    {
      "inputs": [],
      "name": "POOL_FEE_LOW",
      "outputs": [
        {
          "internalType": "uint24",
          "name": "",
          "type": "uint24"
        }
      ],
      "stateMutability": "view",
      "type": "function"
    },
    {
      "inputs": [],
      "name": "POOL_FEE_MEDIUM",
      "outputs": [
        {
          "internalType": "uint24",
          "name": "",
          "type": "uint24"
        }
      ],
      "stateMutability": "view",
      "type": "function"
    },
    {
      "inputs": [],
      "name": "SWAP_DEADLINE_BUFFER",
      "outputs": [
        {
          "internalType": "uint256",
          "name": "",
          "type": "uint256"
        }
      ],
      "stateMutability": "view",
      "type": "function"
    },
    {
      "inputs": [],
      "name": "TIMEOUT",
      "outputs": [
        {
          "internalType": "uint256",
          "name": "",
          "type": "uint256"
        }
      ],
      "stateMutability": "view",
      "type": "function"
    },
    {
      "inputs": [],
      "name": "USDC",
      "outputs": [
        {
          "internalType": "contract IERC20",
          "name": "",
          "type": "address"
        }
      ],
      "stateMutability": "view",
      "type": "function"
    },
    {
      "inputs": [],
      "name": "WETH",
      "outputs": [
        {
          "internalType": "address",
          "name": "",
          "type": "address"
        }
      ],
      "stateMutability": "view",
      "type": "function"
    },
    {
      "inputs": [
        {
          "internalType": "uint256",
          "name": "jobId",
          "type": "uint256"
        }
      ],
      "name": "_executeRelease",
      "outputs": [],
      "stateMutability": "nonpayable",
      "type": "function"
    },
    {
      "inputs": [
        {
          "internalType": "uint256",
          "name": "jobId",
          "type": "uint256"
        }
      ],
      "name": "acceptJob",
      "outputs": [],
      "stateMutability": "nonpayable",
      "type": "function"
    },
    {
      "inputs": [],
      "name": "accruedFees",
      "outputs": [
        {
          "internalType": "uint256",
          "name": "",
          "type": "uint256"
        }
      ],
      "stateMutability": "view",
      "type": "function"
    },
    {
      "inputs": [
        {
          "internalType": "uint256",
          "name": "jobId",
          "type": "uint256"
        }
      ],
      "name": "approveWork",
      "outputs": [],
      "stateMutability": "nonpayable",
      "type": "function"
    },
    {
      "inputs": [
        {
          "internalType": "uint256",
          "name": "jobId",
          "type": "uint256"
        }
      ],
      "name": "cancelJob",
      "outputs": [],
      "stateMutability": "nonpayable",
      "type": "function"
    },
    {
      "inputs": [
        {
          "internalType": "uint256",
          "name": "amountUSDC",
          "type": "uint256"
        },
        {
          "internalType": "address",
          "name": "freelancer",
          "type": "address"
        },
        {
          "internalType": "string",
          "name": "ipfsJobSpec",
          "type": "string"
        }
      ],
      "name": "createWithUSDC",
      "outputs": [
        {
          "internalType": "uint256",
          "name": "jobId",
          "type": "uint256"
        }
      ],
      "stateMutability": "nonpayable",
      "type": "function"
    },
    {
      "inputs": [
        {
          "internalType": "address",
          "name": "tokenIn",
          "type": "address"
        },
        {
          "internalType": "uint256",
          "name": "amountIn",
          "type": "uint256"
        },
        {
          "internalType": "uint256",
          "name": "minUSDC",
          "type": "uint256"
        },
        {
          "internalType": "uint24",
          "name": "poolFee",
          "type": "uint24"
        },
        {
          "internalType": "address",
          "name": "freelancer",
          "type": "address"
        },
        {
          "internalType": "string",
          "name": "ipfsJobSpec",
          "type": "string"
        }
      ],
      "name": "depositAndCreate",
      "outputs": [
        {
          "internalType": "uint256",
          "name": "jobId",
          "type": "uint256"
        }
      ],
      "stateMutability": "payable",
      "type": "function"
    },
    {
      "inputs": [],
      "name": "feeBps",
      "outputs": [
        {
          "internalType": "uint256",
          "name": "",
          "type": "uint256"
        }
      ],
      "stateMutability": "view",
      "type": "function"
    },
    {
      "inputs": [
        {
          "internalType": "uint256",
          "name": "jobId",
          "type": "uint256"
        }
      ],
      "name": "getJob",
      "outputs": [
        {
          "components": [
            {
              "internalType": "address",
              "name": "client",
              "type": "address"
            },
            {
              "internalType": "address",
              "name": "freelancer",
              "type": "address"
            },
            {
              "internalType": "uint256",
              "name": "amountUSDC",
              "type": "uint256"
            },
            {
              "internalType": "uint256",
              "name": "createdAt",
              "type": "uint256"
            },
            {
              "internalType": "uint256",
              "name": "acceptedAt",
              "type": "uint256"
            },
            {
              "internalType": "uint256",
              "name": "approvedAt",
              "type": "uint256"
            },
            {
              "internalType": "enum TrustLanceEscrow.Status",
              "name": "status",
              "type": "uint8"
            },
            {
              "internalType": "bytes32",
              "name": "keeperTaskId",
              "type": "bytes32"
            },
            {
              "internalType": "string",
              "name": "ipfsJobSpec",
              "type": "string"
            },
            {
              "internalType": "string",
              "name": "ipfsDeliverable",
              "type": "string"
            }
          ],
          "internalType": "struct TrustLanceEscrow.Job",
          "name": "",
          "type": "tuple"
        }
      ],
      "stateMutability": "view",
      "type": "function"
    },
    {
      "inputs": [
        {
          "internalType": "uint256",
          "name": "",
          "type": "uint256"
        }
      ],
      "name": "jobs",
      "outputs": [
        {
          "internalType": "address",
          "name": "client",
          "type": "address"
        },
        {
          "internalType": "address",
          "name": "freelancer",
          "type": "address"
        },
        {
          "internalType": "uint256",
          "name": "amountUSDC",
          "type": "uint256"
        },
        {
          "internalType": "uint256",
          "name": "createdAt",
          "type": "uint256"
        },
        {
          "internalType": "uint256",
          "name": "acceptedAt",
          "type": "uint256"
        },
        {
          "internalType": "uint256",
          "name": "approvedAt",
          "type": "uint256"
        },
        {
          "internalType": "enum TrustLanceEscrow.Status",
          "name": "status",
          "type": "uint8"
        },
        {
          "internalType": "bytes32",
          "name": "keeperTaskId",
          "type": "bytes32"
        },
        {
          "internalType": "string",
          "name": "ipfsJobSpec",
          "type": "string"
        },
        {
          "internalType": "string",
          "name": "ipfsDeliverable",
          "type": "string"
        }
      ],
      "stateMutability": "view",
      "type": "function"
    },
    {
      "inputs": [],
      "name": "keeper",
      "outputs": [
        {
          "internalType": "address",
          "name": "",
          "type": "address"
        }
      ],
      "stateMutability": "view",
      "type": "function"
    },
    {
      "inputs": [],
      "name": "keeperHub",
      "outputs": [
        {
          "internalType": "contract IKeeperHub",
          "name": "",
          "type": "address"
        }
      ],
      "stateMutability": "view",
      "type": "function"
    },
    {
      "inputs": [
        {
          "internalType": "uint256",
          "name": "gross",
          "type": "uint256"
        }
      ],
      "name": "netPayout",
      "outputs": [
        {
          "internalType": "uint256",
          "name": "net",
          "type": "uint256"
        },
        {
          "internalType": "uint256",
          "name": "fee",
          "type": "uint256"
        }
      ],
      "stateMutability": "view",
      "type": "function"
    },
    {
      "inputs": [],
      "name": "nextJobId",
      "outputs": [
        {
          "internalType": "uint256",
          "name": "",
          "type": "uint256"
        }
      ],
      "stateMutability": "view",
      "type": "function"
    },
    {
      "inputs": [],
      "name": "owner",
      "outputs": [
        {
          "internalType": "address",
          "name": "",
          "type": "address"
        }
      ],
      "stateMutability": "view",
      "type": "function"
    },
    {
      "inputs": [],
      "name": "pause",
      "outputs": [],
      "stateMutability": "nonpayable",
      "type": "function"
    },
    {
      "inputs": [],
      "name": "paused",
      "outputs": [
        {
          "internalType": "bool",
          "name": "",
          "type": "bool"
        }
      ],
      "stateMutability": "view",
      "type": "function"
    },
    {
      "inputs": [],
      "name": "permit2",
      "outputs": [
        {
          "internalType": "contract IPermit2",
          "name": "",
          "type": "address"
        }
      ],
      "stateMutability": "view",
      "type": "function"
    },
    {
      "inputs": [
        {
          "internalType": "uint256",
          "name": "jobId",
          "type": "uint256"
        }
      ],
      "name": "reclaimAfterTimeout",
      "outputs": [],
      "stateMutability": "nonpayable",
      "type": "function"
    },
    {
      "inputs": [],
      "name": "renounceOwnership",
      "outputs": [],
      "stateMutability": "nonpayable",
      "type": "function"
    },
    {
      "inputs": [
        {
          "internalType": "uint256",
          "name": "newBps",
          "type": "uint256"
        }
      ],
      "name": "setFee",
      "outputs": [],
      "stateMutability": "nonpayable",
      "type": "function"
    },
    {
      "inputs": [
        {
          "internalType": "uint256",
          "name": "jobId",
          "type": "uint256"
        },
        {
          "internalType": "string",
          "name": "ipfsDeliverable",
          "type": "string"
        }
      ],
      "name": "submitWork",
      "outputs": [],
      "stateMutability": "nonpayable",
      "type": "function"
    },
    {
      "inputs": [
        {
          "internalType": "bytes32",
          "name": "",
          "type": "bytes32"
        }
      ],
      "name": "taskToJob",
      "outputs": [
        {
          "internalType": "uint256",
          "name": "",
          "type": "uint256"
        }
      ],
      "stateMutability": "view",
      "type": "function"
    },
    {
      "inputs": [
        {
          "internalType": "uint256",
          "name": "jobId",
          "type": "uint256"
        }
      ],
      "name": "timeoutAt",
      "outputs": [
        {
          "internalType": "uint256",
          "name": "",
          "type": "uint256"
        }
      ],
      "stateMutability": "view",
      "type": "function"
    },
    {
      "inputs": [
        {
          "internalType": "uint256",
          "name": "jobId",
          "type": "uint256"
        }
      ],
      "name": "timeoutRemainingSeconds",
      "outputs": [
        {
          "internalType": "uint256",
          "name": "",
          "type": "uint256"
        }
      ],
      "stateMutability": "view",
      "type": "function"
    },
    {
      "inputs": [],
      "name": "totalLockedUSDC",
      "outputs": [
        {
          "internalType": "uint256",
          "name": "",
          "type": "uint256"
        }
      ],
      "stateMutability": "view",
      "type": "function"
    },
    {
      "inputs": [
        {
          "internalType": "address",
          "name": "newOwner",
          "type": "address"
        }
      ],
      "name": "transferOwnership",
      "outputs": [],
      "stateMutability": "nonpayable",
      "type": "function"
    },
    {
      "inputs": [],
      "name": "uniswapRouter",
      "outputs": [
        {
          "internalType": "contract IUniversalRouter",
          "name": "",
          "type": "address"
        }
      ],
      "stateMutability": "view",
      "type": "function"
    },
    {
      "inputs": [],
      "name": "unpause",
      "outputs": [],
      "stateMutability": "nonpayable",
      "type": "function"
    },
    {
      "inputs": [],
      "name": "withdrawFees",
      "outputs": [],
      "stateMutability": "nonpayable",
      "type": "function"
    },
    {
      "stateMutability": "payable",
      "type": "receive"
    }
  ],
  "bytecode": "0x610140604052600180555f6002555f60035534801561001c575f5ffd5b5060405161338e38038061338e83398101604081905261003b91610127565b60017f9b779b17422d0df92223018b32b4d1fa46e071723d6817e2486d003becc55f0055338061008457604051631e4fbdf760e01b81525f600482015260240160405180910390fd5b61008d816100bd565b506001600160a01b0395861660805293851660a05291841660c052831661012052821660e0521661010052610197565b5f80546001600160a01b038381166001600160a01b0319831681178455604051919092169283917f8be0079c531659141344cd1fd0a4f28419497f9722a3daafe3b4186f6b6457e09190a35050565b80516001600160a01b0381168114610122575f5ffd5b919050565b5f5f5f5f5f5f60c0878903121561013c575f5ffd5b6101458761010c565b95506101536020880161010c565b94506101616040880161010c565b935061016f6060880161010c565b925061017d6080880161010c565b915061018b60a0880161010c565b90509295509295509295565b60805160a05160c05160e05161010051610120516131086102865f395f818161057c015261208901525f8181610549015261145601525f818161061a0152610cae01525f818161026e0152818161231a015261234901525f8181610469015281816120240152818161211b0152818161237101526124ce01525f81816104db01528181610a9801528181610b4001528181610e3501528181611077015281816110bb015281816115a6015281816119a601528181611b8d01528181611d1301528181611f5e015281816120aa015281816121b0015281816122980152818161245d015261256201526131085ff3fe608060405260043610610220575f3560e01c806386c460051161011e578063cbb117a3116100a8578063de91ef5b1161006d578063de91ef5b1461068f578063ea8df7b8146106ae578063eb62c4e3146106e2578063f2fde38b146106f7578063f56f48f214610716575f5ffd5b8063cbb117a3146105f4578063ce202de314610609578063d55be8c61461063c578063da8accf914610651578063dda0952714610670575f5ffd5b8063aced1661116100ee578063aced166114610538578063ad5c46481461056b578063b0c2aa5e1461059e578063bf22c457146105b3578063bf50832d146105df575f5ffd5b806386c460051461049f57806389a30271146104ca5780638da5cb5b146104fd578063936f476014610519575f5ffd5b80633f4ba83a116101aa57806368f8a73c1161016f57806368f8a73c1461041257806369fe0e2d14610425578063715018a614610444578063735de9f7146104585780638456cb591461048b575f5ffd5b80633f4ba83a1461038e578063476343ee146103a25780635c975abb146103b657806363b2f3c9146103de578063682c2058146103fd575f5ffd5b8063180aedf3116101f0578063180aedf3146102f05780631dffa3dc146103255780632133a41c1461034657806324a9d8531461035a5780633d01e0fa1461036f575f5ffd5b8063092db2fe1461022b57806312261ee71461025d578063126865b2146102a8578063167b7eeb146102d1575f5ffd5b3661022757005b5f5ffd5b348015610236575f5ffd5b5061024a610245366004612920565b61072c565b6040519081526020015b60405180910390f35b348015610268575f5ffd5b506102907f000000000000000000000000000000000000000000000000000000000000000081565b6040516001600160a01b039091168152602001610254565b3480156102b3575f5ffd5b506102bd610bb881565b60405162ffffff9091168152602001610254565b3480156102dc575f5ffd5b5061024a6102eb366004612920565b6107f2565b3480156102fb575f5ffd5b5061030f61030a366004612920565b610848565b6040516102549a99989796959493929190612999565b348015610330575f5ffd5b5061034461033f366004612920565b6109b7565b005b348015610351575f5ffd5b5061024a610b1d565b348015610365575f5ffd5b5061024a60025481565b34801561037a575f5ffd5b50610344610389366004612920565b610bb8565b348015610399575f5ffd5b50610344610dcd565b3480156103ad575f5ffd5b50610344610ddf565b3480156103c1575f5ffd5b505f54600160a01b900460ff166040519015158152602001610254565b3480156103e9575f5ffd5b506103446103f8366004612920565b610ec0565b348015610408575f5ffd5b5061024a60035481565b61024a610420366004612a78565b611043565b348015610430575f5ffd5b5061034461043f366004612920565b6113be565b34801561044f575f5ffd5b5061034461142a565b348015610463575f5ffd5b506102907f000000000000000000000000000000000000000000000000000000000000000081565b348015610496575f5ffd5b5061034461143b565b3480156104aa575f5ffd5b5061024a6104b9366004612920565b60056020525f908152604090205481565b3480156104d5575f5ffd5b506102907f000000000000000000000000000000000000000000000000000000000000000081565b348015610508575f5ffd5b505f546001600160a01b0316610290565b348015610524575f5ffd5b50610344610533366004612920565b61144b565b348015610543575f5ffd5b506102907f000000000000000000000000000000000000000000000000000000000000000081565b348015610576575f5ffd5b506102907f000000000000000000000000000000000000000000000000000000000000000081565b3480156105a9575f5ffd5b5061024a60015481565b3480156105be575f5ffd5b506105d26105cd366004612920565b61162e565b6040516102549190612b04565b3480156105ea575f5ffd5b506102bd6101f481565b3480156105ff575f5ffd5b5061024a61012c81565b348015610614575f5ffd5b506102907f000000000000000000000000000000000000000000000000000000000000000081565b348015610647575f5ffd5b5061024a6101f481565b34801561065c575f5ffd5b5061034461066b366004612bc5565b61182d565b34801561067b575f5ffd5b5061024a61068a366004612c0d565b611968565b34801561069a575f5ffd5b506103446106a9366004612920565b611be4565b3480156106b9575f5ffd5b506106cd6106c8366004612920565b611d95565b60408051928352602083019190915201610254565b3480156106ed575f5ffd5b506102bd61271081565b348015610702575f5ffd5b50610344610711366004612c63565b611dc5565b348015610721575f5ffd5b5061024a62278d0081565b5f8180158061073d57506001548110155b1561075b5760405163c0a8563160e01b815260040160405180910390fd5b5f838152600460205260409020600160068083015460ff169081111561078357610783612937565b141580156107aa5750600260068083015460ff16908111156107a7576107a7612937565b14155b156107b8575f9250506107ec565b5f62278d0082600401546107cc9190612c90565b9050804210156107e5576107e04282612ca9565b6107e7565b5f5b935050505b50919050565b5f8180158061080357506001548110155b156108215760405163c0a8563160e01b815260040160405180910390fd5b5f83815260046020819052604090912001546108419062278d0090612c90565b9392505050565b600460208190525f91825260409091208054600182015460028301546003840154948401546005850154600686015460078701546008880180546001600160a01b039889169a979098169895979495939460ff9093169391926108aa90612cbc565b80601f01602080910402602001604051908101604052809291908181526020018280546108d690612cbc565b80156109215780601f106108f857610100808354040283529160200191610921565b820191905f5260205f20905b81548152906001019060200180831161090457829003601f168201915b50505050509080600901805461093690612cbc565b80601f016020809104026020016040519081016040528092919081815260200182805461096290612cbc565b80156109ad5780601f10610984576101008083540402835291602001916109ad565b820191905f5260205f20905b81548152906001019060200180831161099057829003601f168201915b505050505090508a565b808015806109c757506001548110155b156109e55760405163c0a8563160e01b815260040160405180910390fd5b5f8281526004602052604081206006015483919060ff1681816006811115610a0f57610a0f612937565b14610a3a57818160405163e064752b60e01b8152600401610a31929190612cee565b60405180910390fd5b610a42611e02565b5f85815260046020526040902080546001600160a01b03163314610a7957604051630836f21d60e21b815260040160405180910390fd5b6002810180546006808401805460ff191690911790555f909155610ac77f00000000000000000000000000000000000000000000000000000000000000006001600160a01b03163383611e1d565b604051818152339088907fa80c76c474b34cc7af71dec63d733b959fff08f4eb0789e288be5db6b608f9429060200160405180910390a35050610b1660015f5160206130b35f395f51905f5255565b5050505050565b6003546040516370a0823160e01b81523060048201525f91906001600160a01b037f000000000000000000000000000000000000000000000000000000000000000016906370a0823190602401602060405180830381865afa158015610b85573d5f5f3e3d5ffd5b505050506040513d601f19601f82011682018060405250810190610ba99190612d09565b610bb39190612ca9565b905090565b80801580610bc857506001548110155b15610be65760405163c0a8563160e01b815260040160405180910390fd5b5f82815260046020526040902060060154829060029060ff1681816006811115610c1257610c12612937565b14610c3457818160405163e064752b60e01b8152600401610a31929190612cee565b610c3c611e02565b5f85815260046020526040902080546001600160a01b03163314610c7357604051630836f21d60e21b815260040160405180910390fd5b6040805160248082018990528251808303909101815260449091019091526020810180516001600160e01b031663049b7a3b60e51b1790525f7f00000000000000000000000000000000000000000000000000000000000000006001600160a01b0316630181f24f3084610ce942610e10612c90565b62030d406040518563ffffffff1660e01b8152600401610d0c9493929190612d20565b6020604051808303815f875af1158015610d28573d5f5f3e3d5ffd5b505050506040513d601f19601f82011682018060405250810190610d4c9190612d09565b60068401805460ff1916600317905542600580860191909155600785018290555f82815260209182526040908190208b90555182815291925033918a917f6e8eac2f504a1c0cc1fddb3cdf431729fc8ca31048ff53dcfce34cb206424200910160405180910390a3505050610b1660015f5160206130b35f395f51905f5255565b610dd5611e57565b610ddd611e83565b565b610de7611e57565b610def611e02565b6003545f819003610e1357604051630d00db4d60e31b815260040160405180910390fd5b5f600355610e5c610e2b5f546001600160a01b031690565b6001600160a01b037f0000000000000000000000000000000000000000000000000000000000000000169083611e1d565b5f546001600160a01b03166001600160a01b03167fc0819c13be868895eb93e40eaceb96de976442fa1d404e5c55f14bb65a8c489a82604051610ea191815260200190565b60405180910390a250610ddd60015f5160206130b35f395f51905f5255565b610ec8611ed7565b80801580610ed857506001548110155b15610ef65760405163c0a8563160e01b815260040160405180910390fd5b5f8281526004602052604081206006015483919060ff1681816006811115610f2057610f20612937565b14610f4257818160405163e064752b60e01b8152600401610a31929190612cee565b610f4a611e02565b5f85815260046020526040902080546001600160a01b03163303610f8157604051631d33d88760e01b815260040160405180910390fd5b60018101546001600160a01b031615801590610faa575060018101546001600160a01b03163314155b15610fc757604051623d87a560e31b815260040160405180910390fd5b600180820180546001600160a01b0319163317905560068201805460ff1916828002179055504260048201819055604051908152339087907f3dd4928560f1aee6156570e82745e8f638e22a59b215d3cd549c53a32708b0e69060200160405180910390a350610b1660015f5160206130b35f395f51905f5255565b5f61104c611ed7565b611054611e02565b865f03611074576040516365e52d5160e11b815260040160405180910390fd5b5f7f00000000000000000000000000000000000000000000000000000000000000006001600160a01b0316896001600160a01b0316036110ea576110e36001600160a01b037f00000000000000000000000000000000000000000000000000000000000000001633308b611f01565b508661114e565b6001600160a01b03891661112a57873414611118576040516365e52d5160e11b815260040160405180910390fd5b611123888888611f3d565b905061114e565b61113f6001600160a01b038a1633308b611f01565b61114b89898989612259565b90505b8681101561117957604051633b5d56ed60e11b81526004810182905260248101889052604401610a31565b60018054905f61118883612d56565b919050559150604051806101400160405280336001600160a01b03168152602001866001600160a01b031681526020018281526020014281526020015f81526020015f81526020015f60068111156111e2576111e2612937565b81526020015f5f1b815260200185858080601f0160208091040260200160405190810160405280939291908181526020018383808284375f9201829052509385525050604080516020818101835284825294850152868352600480855292819020855181546001600160a01b039182166001600160a01b031991821617835595870151600180840180549290931691909716179055908501516002820155606085015160038201556080850151928101929092555060a0830151600582015560c08301516006808301805493949293909260ff199091169184908111156112cb576112cb612937565b021790555060e0820151600782015561010082015160088201906112ef9082612dc6565b5061012082015160098201906113059082612dc6565b5050604080516001600160a01b038c168152602081018b90529081018390528391507f8f975e6bbabc0b96cb0711785baf9c467de27ed4ea10be715869d5fcb69fff0c9060600160405180910390a2336001600160a01b0316827f18cb37e79de3334b74cecc67006ac12e6c760a3ff94b95a6b74c8f67fbb279ef838c88886040516113949493929190612ea9565b60405180910390a3506113b360015f5160206130b35f395f51905f5255565b979650505050505050565b6113c6611e57565b6101f48111156113e95760405163cd4e616760e01b815260040160405180910390fd5b60025460408051918252602082018390527f528d9479e9f9889a87a3c30c7f7ba537e5e59c4c85a37733b16e57c62df61302910160405180910390a1600255565b611432611e57565b610ddd5f61260b565b611443611e57565b610ddd61265a565b336001600160a01b037f0000000000000000000000000000000000000000000000000000000000000000161461149457604051631ea2564f60e31b815260040160405180910390fd5b808015806114a457506001548110155b156114c25760405163c0a8563160e01b815260040160405180910390fd5b5f82815260046020526040902060060154829060039060ff16818160068111156114ee576114ee612937565b1461151057818160405163e064752b60e01b8152600401610a31929190612cee565b611518611e02565b5f8581526004602052604081206002808201549054919290916127109061153f9084612edd565b6115499190612ef4565b90505f6115568284612ca9565b600185015460068601805460ff191660041790555f60028701559091506001600160a01b03168215611599578260035f8282546115939190612c90565b90915550505b6115cd6001600160a01b037f0000000000000000000000000000000000000000000000000000000000000000168284611e1d565b60408051838152602081018590526001600160a01b038316918c917f8cdc8dc08e54a4e57f52077ecf1b4c508758513439cae2aa325dcc85b922fca8910160405180910390a35050505050610b1660015f5160206130b35f395f51905f5255565b6116366128b2565b8180158061164657506001548110155b156116645760405163c0a8563160e01b815260040160405180910390fd5b5f8381526004602081815260409283902083516101408101855281546001600160a01b0390811682526001830154169281019290925260028101549382019390935260038301546060820152908201546080820152600582015460a082015260068083015491929160c084019160ff909116908111156116e6576116e6612937565b60068111156116f7576116f7612937565b81526020016007820154815260200160088201805461171590612cbc565b80601f016020809104026020016040519081016040528092919081815260200182805461174190612cbc565b801561178c5780601f106117635761010080835404028352916020019161178c565b820191905f5260205f20905b81548152906001019060200180831161176f57829003601f168201915b505050505081526020016009820180546117a590612cbc565b80601f01602080910402602001604051908101604052809291908181526020018280546117d190612cbc565b801561181c5780601f106117f35761010080835404028352916020019161181c565b820191905f5260205f20905b8154815290600101906020018083116117ff57829003601f168201915b505050505081525050915050919050565b8280158061183d57506001548110155b1561185b5760405163c0a8563160e01b815260040160405180910390fd5b5f84815260046020526040902060060154849060019060ff168181600681111561188757611887612937565b146118a957818160405163e064752b60e01b8152600401610a31929190612cee565b6118b1611e02565b5f87815260046020526040902060018101546001600160a01b031633146118eb57604051633832386960e11b815260040160405180910390fd5b600981016118fa878983612f13565b5060068101805460ff19166002179055604051339089907fd5d9bc882dc95f198786a74e52a0b87e49a07c80921b74821ba374339e394d3090611940908b908b90612fcd565b60405180910390a35061195f60015f5160206130b35f395f51905f5255565b50505050505050565b5f611971611ed7565b611979611e02565b845f03611999576040516365e52d5160e11b815260040160405180910390fd5b6119ce6001600160a01b037f000000000000000000000000000000000000000000000000000000000000000016333088611f01565b60018054905f6119dd83612d56565b919050559050604051806101400160405280336001600160a01b03168152602001856001600160a01b031681526020018681526020014281526020015f81526020015f81526020015f6006811115611a3757611a37612937565b81526020015f5f1b815260200184848080601f0160208091040260200160405190810160405280939291908181526020018383808284375f9201829052509385525050604080516020818101835284825294850152858352600480855292819020855181546001600160a01b039182166001600160a01b031991821617835595870151600180840180549290931691909716179055908501516002820155606085015160038201556080850151928101929092555060a0830151600582015560c08301516006808301805493949293909260ff19909116918490811115611b2057611b20612937565b021790555060e082015160078201556101008201516008820190611b449082612dc6565b506101208201516009820190611b5a9082612dc6565b50905050336001600160a01b0316817f18cb37e79de3334b74cecc67006ac12e6c760a3ff94b95a6b74c8f67fbb279ef877f00000000000000000000000000000000000000000000000000000000000000008787604051611bbe9493929190612ea9565b60405180910390a3611bdc60015f5160206130b35f395f51905f5255565b949350505050565b80801580611bf457506001548110155b15611c125760405163c0a8563160e01b815260040160405180910390fd5b611c1a611e02565b5f82815260046020526040902060018101546001600160a01b03163314611c5457604051633832386960e11b815260040160405180910390fd5b600160068083015460ff1690811115611c6f57611c6f612937565b14158015611c965750600260068083015460ff1690811115611c9357611c93612937565b14155b15611cc257600681015460405163e064752b60e01b8152610a319160019160ff90911690600401612cee565b62278d008160040154611cd59190612c90565b421015611cf5576040516326c015ab60e21b815260040160405180910390fd5b60028101805460068301805460ff191660051790555f909155611d427f00000000000000000000000000000000000000000000000000000000000000006001600160a01b03163383611e1d565b604051818152339085907fba9d3184ba6e301a4021275824644342b351d2dfde7f74c4bf4aa3c28d48f9159060200160405180910390a35050611d9160015f5160206130b35f395f51905f5255565b5050565b5f5f61271060025484611da89190612edd565b611db29190612ef4565b9050611dbe8184612ca9565b9150915091565b611dcd611e57565b6001600160a01b038116611df657604051631e4fbdf760e01b81525f6004820152602401610a31565b611dff8161260b565b50565b611e0a61269c565b60025f5160206130b35f395f51905f5255565b611e2a83838360016126cb565b611e5257604051635274afe760e01b81526001600160a01b0384166004820152602401610a31565b505050565b5f546001600160a01b03163314610ddd5760405163118cdaa760e01b8152336004820152602401610a31565b611e8b61272d565b5f805460ff60a01b191690557f5db9ee0a495bf2e6ff9c91a7834c1ba4fdd244a5e8aa4e537bd38aeae4b073aa335b6040516001600160a01b03909116815260200160405180910390a1565b5f54600160a01b900460ff1615610ddd5760405163d93c066560e01b815260040160405180910390fd5b611f0f848484846001612756565b611f3757604051635274afe760e01b81526001600160a01b0385166004820152602401610a31565b50505050565b6040516370a0823160e01b81523060048201525f9081906001600160a01b037f000000000000000000000000000000000000000000000000000000000000000016906370a0823190602401602060405180830381865afa158015611fa3573d5f5f3e3d5ffd5b505050506040513d601f19601f82011682018060405250810190611fc79190612d09565b60408051600b60f81b60208201525f6021820181905282516002818403810182526022840181815260828501909552949550939092916042015b606081526020019060019003908161200157905050604080516001600160a01b037f0000000000000000000000000000000000000000000000000000000000000000166020820152908101899052909150606001604051602081830303815290604052815f8151811061207657612076612fe0565b60200260200101819052503087876120cf7f00000000000000000000000000000000000000000000000000000000000000007f00000000000000000000000000000000000000000000000000000000000000008a6127c3565b5f6040516020016120e4959493929190612ff4565b6040516020818303038152906040528160018151811061210657612106612fe0565b60209081029190910101526001600160a01b037f000000000000000000000000000000000000000000000000000000000000000016633593564c88848461214f61012c42612c90565b6040518563ffffffff1660e01b815260040161216d93929190613034565b5f604051808303818588803b158015612184575f5ffd5b505af1158015612196573d5f5f3e3d5ffd5b50506040516370a0823160e01b81523060048201528693507f00000000000000000000000000000000000000000000000000000000000000006001600160a01b031692506370a082319150602401602060405180830381865afa1580156121ff573d5f5f3e3d5ffd5b505050506040513d601f19601f820116820180604052508101906122239190612d09565b61222d9190612ca9565b9350835f0361224f5760405163081ceff360e41b815260040160405180910390fd5b5050509392505050565b5f6001600160a01b0385166122815760405163c1ab6dc160e01b815260040160405180910390fd5b6040516370a0823160e01b81523060048201525f907f00000000000000000000000000000000000000000000000000000000000000006001600160a01b0316906370a0823190602401602060405180830381865afa1580156122e5573d5f5f3e3d5ffd5b505050506040513d601f19601f820116820180604052508101906123099190612d09565b905061233f6001600160a01b0387167f00000000000000000000000000000000000000000000000000000000000000008761281a565b6001600160a01b037f0000000000000000000000000000000000000000000000000000000000000000166387517c45877f00000000000000000000000000000000000000000000000000000000000000008861239d61012c42612c90565b6040516001600160e01b031960e087901b1681526001600160a01b03948516600482015292841660248401529216604482015265ffffffffffff90911660648201526084015f604051808303815f87803b1580156123f9575f5ffd5b505af115801561240b573d5f5f3e3d5ffd5b5050604080515f6020820181905282516001818403810182526021840181815260618501909552909550909350906041015b606081526020019060019003908161243d5790505090503087876124828b7f00000000000000000000000000000000000000000000000000000000000000008a6127c3565b6001604051602001612498959493929190612ff4565b604051602081830303815290604052815f815181106124b9576124b9612fe0565b60209081029190910101526001600160a01b037f000000000000000000000000000000000000000000000000000000000000000016633593564c838361250161012c42612c90565b6040518463ffffffff1660e01b815260040161251f93929190613034565b5f604051808303815f87803b158015612536575f5ffd5b505af1158015612548573d5f5f3e3d5ffd5b50506040516370a0823160e01b81523060048201528592507f00000000000000000000000000000000000000000000000000000000000000006001600160a01b031691506370a0823190602401602060405180830381865afa1580156125b0573d5f5f3e3d5ffd5b505050506040513d601f19601f820116820180604052508101906125d49190612d09565b6125de9190612ca9565b9350835f036126005760405163081ceff360e41b815260040160405180910390fd5b505050949350505050565b5f80546001600160a01b038381166001600160a01b0319831681178455604051919092169283917f8be0079c531659141344cd1fd0a4f28419497f9722a3daafe3b4186f6b6457e09190a35050565b612662611ed7565b5f805460ff60a01b1916600160a01b1790557f62e78cea01bee320cd4e420270b5ea74000d11b0c9f74754ebdbfc544b05a258611eba3390565b5f5160206130b35f395f51905f5254600203610ddd57604051633ee5aeb560e01b815260040160405180910390fd5b60405163a9059cbb60e01b5f8181526001600160a01b038616600452602485905291602083604481808b5af1925060015f51148316612721578383151615612715573d5f823e3d81fd5b5f873b113d1516831692505b60405250949350505050565b5f54600160a01b900460ff16610ddd57604051638dfc202b60e01b815260040160405180910390fd5b6040516323b872dd60e01b5f8181526001600160a01b038781166004528616602452604485905291602083606481808c5af1925060015f511483166127b25783831516156127a6573d5f823e3d81fd5b5f883b113d1516831692505b604052505f60605295945050505050565b604051606084811b6bffffffffffffffffffffffff19908116602084015260e884901b6001600160e81b031916603484015284821b16603783015290604b0160405160208183030381529060405290509392505050565b6128268383835f612868565b611e525761283783835f6001612868565b61285f57604051635274afe760e01b81526001600160a01b0384166004820152602401610a31565b611e2a83838360015b60405163095ea7b360e01b5f8181526001600160a01b038616600452602485905291602083604481808b5af1925060015f51148316612721578383151615612715573d5f823e3d81fd5b6040518061014001604052805f6001600160a01b031681526020015f6001600160a01b031681526020015f81526020015f81526020015f81526020015f81526020015f600681111561290657612906612937565b81526020015f815260200160608152602001606081525090565b5f60208284031215612930575f5ffd5b5035919050565b634e487b7160e01b5f52602160045260245ffd5b6007811061296757634e487b7160e01b5f52602160045260245ffd5b9052565b5f81518084528060208401602086015e5f602082860101526020601f19601f83011685010191505092915050565b6001600160a01b038b811682528a16602082015260408101899052606081018890526080810187905260a081018690526129d660c082018661294b565b8360e08201526101406101008201525f6129f461014083018561296b565b828103610120840152612a07818561296b565b9d9c50505050505050505050505050565b80356001600160a01b0381168114612a2e575f5ffd5b919050565b5f5f83601f840112612a43575f5ffd5b50813567ffffffffffffffff811115612a5a575f5ffd5b602083019150836020828501011115612a71575f5ffd5b9250929050565b5f5f5f5f5f5f5f60c0888a031215612a8e575f5ffd5b612a9788612a18565b96506020880135955060408801359450606088013562ffffff81168114612abc575f5ffd5b9350612aca60808901612a18565b925060a088013567ffffffffffffffff811115612ae5575f5ffd5b612af18a828b01612a33565b989b979a50959850939692959293505050565b60208152612b1e6020820183516001600160a01b03169052565b5f6020830151612b3960408401826001600160a01b03169052565b506040830151606083015260608301516080830152608083015160a083015260a083015160c083015260c0830151612b7460e084018261294b565b5060e0830151610100830152610100830151610140610120840152612b9d61016084018261296b565b9050610120840151601f1984830301610140850152612bbc828261296b565b95945050505050565b5f5f5f60408486031215612bd7575f5ffd5b83359250602084013567ffffffffffffffff811115612bf4575f5ffd5b612c0086828701612a33565b9497909650939450505050565b5f5f5f5f60608587031215612c20575f5ffd5b84359350612c3060208601612a18565b9250604085013567ffffffffffffffff811115612c4b575f5ffd5b612c5787828801612a33565b95989497509550505050565b5f60208284031215612c73575f5ffd5b61084182612a18565b634e487b7160e01b5f52601160045260245ffd5b80820180821115612ca357612ca3612c7c565b92915050565b81810381811115612ca357612ca3612c7c565b600181811c90821680612cd057607f821691505b6020821081036107ec57634e487b7160e01b5f52602260045260245ffd5b60408101612cfc828561294b565b610841602083018461294b565b5f60208284031215612d19575f5ffd5b5051919050565b6001600160a01b03851681526080602082018190525f90612d439083018661296b565b6040830194909452506060015292915050565b5f60018201612d6757612d67612c7c565b5060010190565b634e487b7160e01b5f52604160045260245ffd5b601f821115611e5257805f5260205f20601f840160051c81016020851015612da75750805b601f840160051c820191505b81811015610b16575f8155600101612db3565b815167ffffffffffffffff811115612de057612de0612d6e565b612df481612dee8454612cbc565b84612d82565b6020601f821160018114612e26575f8315612e0f5750848201515b5f19600385901b1c1916600184901b178455610b16565b5f84815260208120601f198516915b82811015612e555787850151825560209485019460019092019101612e35565b5084821015612e7257868401515f19600387901b60f8161c191681555b50505050600190811b01905550565b81835281816020850137505f828201602090810191909152601f909101601f19169091010190565b8481526001600160a01b03841660208201526060604082018190525f90612ed39083018486612e81565b9695505050505050565b8082028115828204841417612ca357612ca3612c7c565b5f82612f0e57634e487b7160e01b5f52601260045260245ffd5b500490565b67ffffffffffffffff831115612f2b57612f2b612d6e565b612f3f83612f398354612cbc565b83612d82565b5f601f841160018114612f70575f8515612f595750838201355b5f19600387901b1c1916600186901b178355610b16565b5f83815260208120601f198716915b82811015612f9f5786850135825560209485019460019092019101612f7f565b5086821015612fbb575f1960f88860031b161c19848701351681555b505060018560011b0183555050505050565b602081525f611bdc602083018486612e81565b634e487b7160e01b5f52603260045260245ffd5b60018060a01b038616815284602082015283604082015260a060608201525f61302060a083018561296b565b905082151560808301529695505050505050565b606081525f613046606083018661296b565b828103602084015280855180835260208301915060208160051b840101602088015f5b8381101561309b57601f1986840301855261308583835161296b565b6020958601959093509190910190600101613069565b50508094505050505082604083015294935050505056fe9b779b17422d0df92223018b32b4d1fa46e071723d6817e2486d003becc55f00a26469706673582212202ff8dba74b38842f997f379dd34efe857f6988988c8cf0f142cd56b40926b43964736f6c634300081c0033",
  "linkReferences": {},
  "deployedLinkReferences": {},
  "immutableReferences": {
    "1236": [
      {
        "length": 32,
        "start": 1243
      },
      {
        "length": 32,
        "start": 2712
      },
      {
        "length": 32,
        "start": 2880
      },
      {
        "length": 32,
        "start": 3637
      },
      {
        "length": 32,
        "start": 4215
      },
      {
        "length": 32,
        "start": 4283
      },
      {
        "length": 32,
        "start": 5542
      },
      {
        "length": 32,
        "start": 6566
      },
      {
        "length": 32,
        "start": 7053
      },
      {
        "length": 32,
        "start": 7443
      },
      {
        "length": 32,
        "start": 8030
      },
      {
        "length": 32,
        "start": 8362
      },
      {
        "length": 32,
        "start": 8624
      },
      {
        "length": 32,
        "start": 8856
      },
      {
        "length": 32,
        "start": 9309
      },
      {
        "length": 32,
        "start": 9570
      }
    ],
    "1239": [
      {
        "length": 32,
        "start": 1129
      },
      {
        "length": 32,
        "start": 8228
      },
      {
        "length": 32,
        "start": 8475
      },
      {
        "length": 32,
        "start": 9073
      },
      {
        "length": 32,
        "start": 9422
      }
    ],
    "1242": [
      {
        "length": 32,
        "start": 622
      },
      {
        "length": 32,
        "start": 8986
      },
      {
        "length": 32,
        "start": 9033
      }
    ],
    "1245": [
      {
        "length": 32,
        "start": 1562
      },
      {
        "length": 32,
        "start": 3246
      }
    ],
    "1247": [
      {
        "length": 32,
        "start": 1353
      },
      {
        "length": 32,
        "start": 5206
      }
    ],
    "1249": [
      {
        "length": 32,
        "start": 1404
      },
      {
        "length": 32,
        "start": 8329
      }
    ]
  },
  "inputSourceName": "project/contracts/TrustLanceEscrow.sol",
  "buildInfoId": "solc-0_8_28-70c5273b93f510370260f63581555c33d6678163"
}